:0400000007EF00F016
:0A0008007C8272ED0EF0FDEF15F0A2
:10100000003738392F3435362A3132332D23303DED
:101010002B000A1F1F0E040000000A0A00110E0018
:1010200000596F757220436C6F636B2048617320A9
:101030004265656E2053657400507265737320318C
:1010400020546F2053657420436C6F636B00496EAE
:1010500076616C6964204E756D6265720057726FBF
:101060006E672043686F696365007365636F6E64C4
:10107000733D2D2D006D696E757465733D2D2D00CA
:0D108000686F7572733D2D2D00256900000D
:10108E00190E686EDDEC0FF07B6E230E606E96EC23
:10109E0014F07B6EA10E606EF1EC12F07B6E9A0E68
:1010AE005A6E4FEC14F07B6E000E586E010ED0ECA3
:1010BE0016F07B6E190E6E6E010E6F6E010E706E57
:1010CE00390E716E51EC16F07B6E010E606E010ED4
:1010DE00B3EC16F07B6E4FC058F0596A000E5B6E83
:1010EE000A0E5A6E8FEC12F05850606E000EB3EC72
:1010FE0016F07B6E0D0E0001A66FFB0EE82EFED7CE
:10110E00A62FFCD700D0020E606E010EB3EC16F0C7
:10111E007B6E4FC058F0596A000E5B6E0A0E5A6E07
:10112E00A5EC13F05850606E000EB3EC16F07B6E0B
:10113E000D0E0001A66FFB0EE82EFED7A62FFCD7D4
:10114E0000D0040E606E010EB3EC16F07B6E51C033
:10115E0058F0596A000E5B6E0A0E5A6E8FEC12F042
:10116E005850606E000EB3EC16F07B6E0D0E000143
:10117E00A66FFB0EE82EFED7A62FFCD700D0080ECA
:10118E00606E010EB3EC16F07B6E51C058F0596ACA
:10119E00000E5B6E0A0E5A6EA5EC13F05850606E80
:1011AE00000EB3EC16F07B6E0D0E0001A66FFB0E5B
:1011BE00E82EFED7A62FFCD700D0100E606E010EC3
:1011CE00B3EC16F07B6E53C058F0596A000E5B6E8E
:1011DE000A0E5A6E8FEC12F05850606E000EB3EC81
:1011EE0016F07B6E0D0E0001A66FFB0EE82EFED7DD
:1011FE00A62FFCD700D0200E606E010EB3EC16F0B9
:10120E007B6E53C058F0596A000E5B6E0A0E5A6E12
:10121E00A5EC13F05850606E000EB3EC16F07B6E1A
:10122E000D0E0001A66FFB0EE82EFED7A62FFCD7E3
:10123E0000D03C0E5318D8A427EF09F029EF09F07F
:10124E002CEF09F0000E536E512A3C0E5118D8A403
:10125E0033EF09F035EF09F038EF09F0000E516E5B
:10126E004F2A180E4F18D8A43FEF09F041EF09F09E
:10127E0043EF09F0000E4F6E53C052F051C050F0C4
:10128E004FC04EF0230E606E2B0E616E20EC12F0EE
:10129E004B6E310E2B18D8A457EF09F059EF09F009
:1012AE005BEF09F0010E546E5450D8B461EF09F0A3
:1012BE0063EF09F0B2EF0DF0310E4B18D8A46AEFC0
:1012CE0009F06CEF09F06CEF08F0190E626E010E6A
:1012DE00636E52EC15F07B6E190E6E6E010E6F6E14
:1012EE00010E706E800E716E51EC16F07B6E750EE7
:1012FE004D6E630E2B6E060E0001A76F130EA66FBA
:10130E00AD0EE82EFED7A62FFCD7A72FFAD700D00A
:10131E00230E606E2B0E616E20EC12F04D6E310EB0
:10132E004D18D8B49DEF09F09FEF09F0F0EF09F0DA
:10133E00320E4D18D8B4A6EF09F0A8EF09F0F0EF71
:10134E0009F0330E4D18D8B4AFEF09F0B1EF09F034
:10135E00F0EF09F0340E4D18D8B4B8EF09F0BAEF2B
:10136E0009F0F0EF09F0350E4D18D8B4C1EF09F0C1
:10137E00C3EF09F0F0EF09F0360E4D18D8B4CAEFEE
:10138E0009F0CCEF09F0F0EF09F0370E4D18D8B494
:10139E00D3EF09F0D5EF09F0F0EF09F0380E4D1844
:1013AE00D8B4DCEF09F0DEEF09F0F0EF09F0390EFA
:1013BE004D18D8B4E5EF09F0E7EF09F0F0EF09F0BA
:1013CE00300E4D18D8A4EEEF09F0F0EF09F0F4EF5F
:1013DE0009F0010E4A6EF6EF09F0000E4A6E4A5001
:1013EE00D8B4FCEF09F0FEEF09F08FEF09F0190EFB
:1013FE006E6E010E6F6E070E706E4DC071F095EC35
:10140E0016F0000E4A6E630E2B6E040E0001A76FCF
:10141E000C0EA66F330EE82EFED7A62FFCD7A72FE5
:10142E00FAD700D0230E606E2B0E616E20EC12F0F8
:10143E004C6E310E4C18D8B427EF0AF029EF0AF093
:10144E007AEF0AF0320E4C18D8B430EF0AF032EFC1
:10145E000AF07AEF0AF0330E4C18D8B439EF0AF0CE
:10146E003BEF0AF07AEF0AF0340E4C18D8B442EF84
:10147E000AF044EF0AF07AEF0AF0350E4C18D8B4A1
:10148E004BEF0AF04DEF0AF07AEF0AF0360E4C18D9
:10149E00D8B454EF0AF056EF0AF07AEF0AF0370E8E
:1014AE004C18D8B45DEF0AF05FEF0AF07AEF0AF04D
:1014BE00380E4C18D8B466EF0AF068EF0AF07AEFDF
:1014CE000AF0390E4C18D8B46FEF0AF071EF0AF02B
:1014DE007AEF0AF0300E4C18D8A478EF0AF07AEFB3
:1014EE000AF07EEF0AF0010E4A6E80EF0AF0000E4F
:1014FE004A6E4A50D8B486EF0AF088EF0AF019EF18
:10150E000AF0190E6E6E010E6F6E080E706E4CC0E4
:10151E0071F095EC16F0040E0001A76F0C0EA66F7D
:10152E00330EE82EFED7A62FFCD7A72FFAD700D062
:10153E004D500A0DF3504C24F00F4F6E190E626E83
:10154E00010E636E52EC15F07B6E190E6E6E010E6F
:10155E006F6E010E706E750E716E51EC16F07B6E25
:10156E00750E4D6E630E2B6E060E0001A76F130ED9
:10157E00A66FAD0EE82EFED7A62FFCD7A72FFAD753
:10158E0000D0230E606E2B0E616E20EC12F04D6EAD
:10159E00310E4D18D8B4D6EF0AF0D8EF0AF029EF75
:1015AE000BF0320E4D18D8B4DFEF0AF0E1EF0AF06F
:1015BE0029EF0BF0330E4D18D8B4E8EF0AF0EAEF2E
:1015CE000AF029EF0BF0340E4D18D8B4F1EF0AF0F3
:1015DE00F3EF0AF029EF0BF0350E4D18D8B4FAEFF1
:1015EE000AF0FCEF0AF029EF0BF0360E4D18D8B4C6
:1015FE0003EF0BF005EF0BF029EF0BF0370E4D1844
:10160E00D8B40CEF0BF00EEF0BF029EF0BF0380EF9
:10161E004D18D8B415EF0BF017EF0BF029EF0BF0B8
:10162E00390E4D18D8B41EEF0BF020EF0BF029EF4A
:10163E000BF0300E4D18D8A427EF0BF029EF0BF05E
:10164E002DEF0BF0010E4A6E2FEF0BF0000E4A6ECF
:10165E004A50D8B435EF0BF037EF0BF0C8EF0AF065
:10166E00190E6E6E010E6F6E090E706E4DC071F01A
:10167E0095EC16F0000E4A6E630E2B6E040E0001F2
:10168E00A76F0C0EA66F330EE82EFED7A62FFCD733
:10169E00A72FFAD700D0230E606E2B0E616E20ECB2
:1016AE0012F04C6E310E4C18D8B460EF0BF062EFA6
:1016BE000BF0B3EF0BF0320E4C18D8B469EF0BF001
:1016CE006BEF0BF0B3EF0BF0330E4C18D8B472EF88
:1016DE000BF074EF0BF0B3EF0BF0340E4C18D8B4D4
:1016EE007BEF0BF07DEF0BF0B3EF0BF0350E4C18DC
:1016FE00D8B484EF0BF086EF0BF0B3EF0BF0360E91
:10170E004C18D8B48DEF0BF08FEF0BF0B3EF0BF04E
:10171E00370E4C18D8B496EF0BF098EF0BF0B3EFE2
:10172E000BF0380E4C18D8B49FEF0BF0A1EF0BF066
:10173E00B3EF0BF0390E4C18D8B4A8EF0BF0AAEF9C
:10174E000BF0B3EF0BF0300E4C18D8A4B1EF0BF03A
:10175E00B3EF0BF0B7EF0BF0010E4A6EB9EF0BF0D3
:10176E00000E4A6E4A50D8B4BFEF0BF0C1EF0BF02B
:10177E0052EF0BF0190E6E6E010E6F6E0A0E706E3A
:10178E004CC071F095EC16F0040E0001A76F0C0E14
:10179E00A66F330EE82EFED7A62FFCD7A72FFAD7AB
:1017AE0000D04D500A0DF3504C24F00F516E190E0F
:1017BE00626E010E636E52EC15F07B6E190E6E6E3C
:1017CE00010E6F6E010E706E6A0E716E51EC16F098
:1017DE007B6E750E4D6E630E2B6E060E0001A76F9F
:1017EE00130EA66FAD0EE82EFED7A62FFCD7A72F91
:1017FE00FAD700D0230E606E2B0E616E20EC12F025
:10180E004D6E310E4D18D8B40FEF0CF011EF0CF0E9
:10181E0062EF0CF0320E4D18D8B418EF0CF01AEF30
:10182E000CF062EF0CF0330E4D18D8B421EF0CF023
:10183E0023EF0CF062EF0CF0340E4D18D8B42AEFF3
:10184E000CF02CEF0CF062EF0CF0350E4D18D8B4F6
:10185E0033EF0CF035EF0CF062EF0CF0360E4D1846
:10186E00D8B43CEF0CF03EEF0CF062EF0CF0370EFC
:10187E004D18D8B445EF0CF047EF0CF062EF0CF0BA
:10188E00380E4D18D8B44EEF0CF050EF0CF062EF4E
:10189E000CF0390E4D18D8B457EF0CF059EF0CF080
:1018AE0062EF0CF0300E4D18D8A460EF0CF062EF22
:1018BE000CF066EF0CF0010E4A6E68EF0CF0000EA5
:1018CE004A6E4A50D8B46EEF0CF070EF0CF001EF88
:1018DE000CF0190E6E6E010E6F6E090E706E4DC00D
:1018EE0071F095EC16F0000E4A6E630E2B6E040E20
:1018FE000001A76F0C0EA66F330EE82EFED7A62F93
:10190E00FCD7A72FFAD700D0230E606E2B0E616E78
:10191E0020EC12F04C6E310E4C18D8B499EF0CF03E
:10192E009BEF0CF0ECEF0CF0320E4C18D8B4A2EF8B
:10193E000CF0A4EF0CF0ECEF0CF0330E4C18D8B406
:10194E00ABEF0CF0ADEF0CF0ECEF0CF0340E4C18DE
:10195E00D8B4B4EF0CF0B6EF0CF0ECEF0CF0350E93
:10196E004C18D8B4BDEF0CF0BFEF0CF0ECEF0CF050
:10197E00360E4C18D8B4C6EF0CF0C8EF0CF0ECEFE6
:10198E000CF0370E4C18D8B4CFEF0CF0D1EF0CF0A2
:10199E00ECEF0CF0380E4C18D8B4D8EF0CF0DAEFA0
:1019AE000CF0ECEF0CF0390E4C18D8B4E1EF0CF053
:1019BE00E3EF0CF0ECEF0CF0300E4C18D8A4EAEF7D
:1019CE000CF0ECEF0CF0F0EF0CF0010E4A6EF2EFB3
:1019DE000CF0000E4A6E4A50D8B4F8EF0CF0FAEF45
:1019EE000CF08BEF0CF0190E6E6E010E6F6E0A0E70
:1019FE00706E4CC071F095EC16F0040E0001A76FDE
:101A0E000C0EA66F330EE82EFED7A62FFCD7A72FEF
:101A1E00FAD700D04D500A0DF3504C24F00F536EF0
:101A2E00190E626E010E636E52EC15F07B6E180E7F
:101A3E004F6024EF0DF026EF0DF036EF0DF03C0E5B
:101A4E0051602CEF0DF02EEF0DF036EF0DF03B0E3A
:101A5E00536434EF0DF036EF0DF068EF0DF0190E04
:101A6E006E6E010E6F6E010E706E4E0E716E51EC3B
:101A7E0016F07B6E0B0E0001A76F260EA66F5D0E85
:101A8E00E82EFED7A62FFCD7A72FFAD700D0190E17
:101A9E00626E010E636E52EC15F07B6E190E6E6E59
:101AAE00010E6F6E010E706E390E716E51EC16F0E6
:101ABE007B6E4EC04FF050C051F052C053F06CEFE1
:101ACE0008F0190E6E6E010E6F6E010E706E210E05
:101ADE00716E51EC16F07B6E190E736E010E746EF4
:101AEE00190E756E190E766E000E776ED9EC14F017
:101AFE007B6E190E736E010E746E1A0E756E110ECC
:101B0E00766E010E776ED9EC14F07B6E0B0E000123
:101B1E00A76F260EA66F5D0EE82EFED7A62FFCD75A
:101B2E00A72FFAD700D0190E626E010E636E52EC1B
:101B3E0015F07B6E190E6E6E010E6F6E010E706ECD
:101B4E00390E716E51EC16F07B6E000E546E750EE2
:101B5E002B6E6CEF08F0320E2B18D8B4B9EF0DF0D7
:101B6E00BBEF0DF039EF0EF0330E2B18D8B4C2EFD9
:101B7E000DF0C4EF0DF039EF0EF0340E2B18D8B473
:101B8E00CBEF0DF0CDEF0DF039EF0EF0350E2B182B
:101B9E00D8B4D4EF0DF0D6EF0DF039EF0EF0360EBF
:101BAE002B18D8B4DDEF0DF0DFEF0DF039EF0EF09E
:101BBE00370E2B18D8B4E6EF0DF0E8EF0DF039EF35
:101BCE000EF0380E2B18D8B4EFEF0DF0F1EF0DF03C
:101BDE0039EF0EF0390E2B18D8B4F8EF0DF0FAEFEE
:101BEE000DF039EF0EF0300E2B18D8B401EF0EF0C9
:101BFE0003EF0EF039EF0EF0230E2B18D8B40AEFC8
:101C0E000EF00CEF0EF039EF0EF03D0E2B18D8B48F
:101C1E0013EF0EF015EF0EF039EF0EF02B0E2B1812
:101C2E00D8B41CEF0EF01EEF0EF039EF0EF02D0EA5
:101C3E002B18D8B425EF0EF027EF0EF039EF0EF07B
:101C4E002A0E2B18D8B42EEF0EF030EF0EF039EF1F
:101C5E000EF02F0E2B18D8A437EF0EF039EF0EF032
:101C6E006EEF0EF0190E626E010E636E52EC15F0F1
:101C7E007B6E190E6E6E010E6F6E010E706E5D0E26
:101C8E00716E51EC16F07B6E0B0E0001A76F260ED7
:101C9E00A66F5D0EE82EFED7A62FFCD7A72FFAD77C
:101CAE0000D0630E2B6E190E626E010E636E52EC37
:101CBE0015F07B6E190E6E6E010E6F6E010E706E4C
:101CCE00390E716E51EC16F07B6E6CEF08F06CEF06
:101CDE0008F007EF00F00600FACF56F0FBCF57F0F2
:101CEE00F2A87CEF0EF07EEF0EF087EF0EF0F2A270
:101CFE0083EF0EF085EF0EF087EF0EF08EEC17F0FF
:101D0E00F0A68CEF0EF08EEF0EF097EF0EF0F0A027
:101D1E0093EF0EF095EF0EF097EF0EF08CEC17F0B0
:101D2E00F0A89CEF0EF09EEF0EF0A7EF0EF0F0A2D3
:101D3E00A3EF0EF0A5EF0EF0A7EF0EF08AEC17F062
:101D4E00F2AAACEF0EF0AEEF0EF0B7EF0EF0F2A47B
:101D5E00B3EF0EF0B5EF0EF0B7EF0EF00AEC17F092
:101D6E009DA0BCEF0EF0BEEF0EF0C7EF0EF09EA0E2
:101D7E00C3EF0EF0C5EF0EF0C7EF0EF082EC17F0CA
:101D8E00F2A6CCEF0EF0CEEF0EF0E9EF0EF0F2A0D1
:101D9E00D3EF0EF0D5EF0EF0E9EF0EF081A8DAEFEB
:101DAE000EF0DCEF0EF0E9EF0EF01804D8A4E2EF1F
:101DBE000EF0E4EF0EF0E9EF0EF0000E186E000ECE
:101DCE0075EC17F0F2A6EEEF0EF0F0EF0EF00BEF53
:101DDE000FF0F2A0F5EF0EF0F7EF0EF00BEF0FF0A5
:101DEE0081B8FCEF0EF0FEEF0EF00BEF0FF0185077
:101DFE00D8A404EF0FF006EF0FF00BEF0FF0010E6B
:101E0E00186E010E75EC17F0F2A610EF0FF012EF30
:101E1E000FF02DEF0FF0F2A017EF0FF019EF0FF0FC
:101E2E002DEF0FF081AA1EEF0FF020EF0FF02DEF28
:101E3E000FF01704D8A426EF0FF028EF0FF02DEFB8
:101E4E000FF0000E176E000E68EC17F0F2A632EFD0
:101E5E000FF034EF0FF04FEF0FF0F2A039EF0FF05D
:101E6E003BEF0FF04FEF0FF081BA40EF0FF042EF64
:101E7E000FF04FEF0FF01750D8A448EF0FF04AEFC6
:101E8E000FF04FEF0FF0010E176E010E68EC17F00A
:101E9E00F2A654EF0FF056EF0FF071EF0FF0F2A025
:101EAE005BEF0FF05DEF0FF071EF0FF081AC62EFB3
:101EBE000FF064EF0FF071EF0FF01604D8A46AEF75
:101ECE000FF06CEF0FF071EF0FF0000E166E000EAC
:101EDE005BEC17F0F2A676EF0FF078EF0FF093EFC2
:101EEE000FF0F2A07DEF0FF07FEF0FF093EF0FF0FA
:101EFE0081BC84EF0FF086EF0FF093EF0FF01650CA
:101F0E00D8A48CEF0FF08EEF0FF093EF0FF0010EC1
:101F1E00166E010E5BEC17F0F2A698EF0FF09AEF2B
:101F2E000FF0B5EF0FF0F2A09FEF0FF0A1EF0FF053
:101F3E00B5EF0FF081AEA6EF0FF0A8EF0FF0B5EFF3
:101F4E000FF01504D8A4AEEF0FF0B0EF0FF0B5EF11
:101F5E000FF0000E156E000E4EEC17F0F2A6BAEF53
:101F6E000FF0BCEF0FF0D7EF0FF0F2A0C1EF0FF0B4
:101F7E00C3EF0FF0D7EF0FF081BEC8EF0FF0CAEF2F
:101F8E000FF0D7EF0FF01550D8A4D0EF0FF0D2EF1F
:101F9E000FF0D7EF0FF0010E156E010E4EEC17F08D
:101FAE0057C0FBFF56C0FAFF7C9211006850D8A4B0
:101FBE00E3EF0FF0E5EF0FF0E9EF0FF0000E6A6EB2
:101FCE0003EF11F068C058F005EC11F06A6E68C0AE
:101FDE0058F06850D96EDA6A000EDFBE010E596EE7
:101FEE0098EC11F06A6E6828586E05EC11F06A6E66
:101FFE006828586E6850D96EDA6A010ED926000E1E
:10200E00DFBE010E596E98EC11F06A6E6850020F29
:10201E00586E05EC11F06A6E6850030F586E05ECA1
:10202E0011F06A6E6850040F586E05EC11F06A6E6E
:10203E006850050F586E05EC11F06A6E6850060F69
:10204E00586E05EC11F06A6E6850070F586E05EC6D
:10205E0011F06A6E6850080F586E05EC11F06A6E3A
:10206E006850090F586E05EC11F06A6E6850020F39
:10207E00586E6850D96EDA6A020ED926000EDFBE8F
:10208E00010E596E98EC11F06A6E6850030F586E7F
:10209E006850D96EDA6A030ED926000EDFBE010E25
:1020AE00596E98EC11F06A6E6850040F586E6850B5
:1020BE00D96EDA6A040ED926000EDFBE010E596EF5
:1020CE0098EC11F06A6E6850050F586E6850D96E14
:1020DE00DA6A050ED926000EDFBE010E596E98EC97
:1020EE0011F06A6E6850060F586E6850D96EDA6A33
:1020FE00060ED926000EDFBE010E596E98EC11F0B9
:10210E006A6E6850070F586E6850D96EDA6A070EFD
:10211E00D926000EDFBE010E596E98EC11F06A6ED4
:10212E006850080F586E6850D96EDA6A080ED926B4
:10213E00000EDFBE010E596E98EC11F06A6E6850FB
:10214E00090F586E6850D96EDA6A090ED926000E3C
:10215E00DFBE010E596E98EC11F06A6E340E696E88
:10216E00F20EE82EFED7692EFCD768C062F0380E4C
:10217E00636E52EC15F00D0E696EFC0EE82EFED756
:10218E00692EFCD768C062F0380E636E52EC15F003
:10219E00640EE82EFED768C062F0380E636E52EC05
:1021AE0015F06A6E68C062F0010E636E52EC15F0A7
:1021BE006A6E68C062F0020E636E52EC15F06A6EC3
:1021CE0068C062F0060E636E52EC15F06A6E68C05F
:1021DE0062F00C0E636E52EC15F06A6E68C062F01F
:1021EE00380E636E52EC15F06A6E68C062F0800EA7
:1021FE00636E52EC15F06A6E6A501200010E5E6E3E
:10220E005850D8B40DEF11F00FEF11F01FEF11F081
:10221E005850D96EDA6ADF30E832E832070B596E61
:10222E00070E59641DEF11F01FEF11F076EF11F04C
:10223E00000E5E6E96EF11F05850D96EDA6ADF30EE
:10224E00E832E832070B596E010E5A6E592A32EFF8
:10225E0011F0D8905A36592E30EF11F05A50FF0A1D
:10226E005B6E5850D96EDA6ADF50070B020DF350D1
:10227E000B0FD96EDA6ADECF5CF0DDCF5DF05CC09D
:10228E00D9FF5DC0DAFF5B50DF1696EF11F05850A4
:10229E00D96EDA6ADF30E832E832070B596E010E7A
:1022AE005A6E592A5DEF11F0D8905A36592E5BEFBF
:1022BE0011F05850D96EDA6ADF50070B020DF35049
:1022CE000B0FD96EDA6ADECF5BF0DDCF5CF05BC050
:1022DE00D9FF5CC0DAFF5A50DF1296EF11F058505A
:1022EE00D96EDA6ADFBC7EEF11F081EF11F0010ECC
:1022FE0082EF11F0000E596E5A6A5A50000AD8B485
:10230E008BEF11F01FEF11F05950000AD8B423EFE4
:10231E0011F0010AD8B44EEF11F01FEF11F05E501C
:10232E001200010E5F6E5850D8B4A0EF11F0A2EF5C
:10233E0011F0B2EF11F05850D96EDA6ADF30E83290
:10234E00E832070B5A6E070E5A64B0EF11F0B2EF77
:10235E0011F009EF12F0000E5F6E1EEF12F05850E2
:10236E00D96EDA6ADF30E832E832070B5A6E010EA8
:10237E005B6E5A2AC5EF11F0D8905B365A2EC3EF1A
:10238E0011F05B50FF0A5C6E5850D96EDA6ADF505E
:10239E00070B020DF350010FD96EDA6ADECF5DF036
:1023AE00DDCF5EF05DC0D9FF5EC0DAFF5C50DF1698
:1023BE001EEF12F05850D96EDA6ADF30E832E8328A
:1023CE00070B5A6E010E5B6E5A2AF0EF11F0D89081
:1023DE005B365A2EEEEF11F05850D96EDA6ADF5096
:1023EE00070B020DF350010FD96EDA6ADECF5CF0E7
:1023FE00DDCF5DF05CC0D9FF5DC0DAFF5B50DF1250
:10240E001EEF12F059505A6E5B6A5B50000AD8B438
:10241E0013EF12F0B2EF11F05A50000AD8B4B6EF23
:10242E0011F0010AD8B4E1EF11F0B2EF11F05F50E4
:10243E001200000E656E000E666E000E646E000ECB
:10244E00636E6050D8B42EEF12F030EF12F038EF0A
:10245E0012F06150D8A436EF12F038EF12F03AEFC6
:10246E0012F08AEF12F0000E656E000E646E605070
:10247E006424586E000E596E98EC11F0642A030E07
:10248E0064644CEF12F04EEF12F03EEF12F060501B
:10249E006524586E010E596E98EC11F0000E666EA2
:1024AE0060506624040F586E630E596EFDEC13F0E7
:1024BE006304D8A465EF12F067EF12F078EF12F014
:1024CE006550040DF350010F6624626E62C0F6FF74
:1024DE00100EF76EF86A6150D96EDA6A0800F5CF01
:1024EE00DFFF662A030E66647FEF12F081EF12F0B3
:1024FE0057EF12F0652A030E656488EF12F08AEF2B
:10250E0012F03CEF12F06150D96EDA6ADF50120011
:10251E00000E5D6E5BBE98EF12F096EF12F09EEF1E
:10252E0012F05A6C5B1ED8B05B2A010E5D6E59BE5E
:10253E00A5EF12F0A3EF12F0ABEF12F0586C591E8C
:10254E00D8B0592A010E5D1A000E5F6E000E5E6E37
:10255E005A505B10D8B4B6EF12F0B8EF12F0E0EFAD
:10256E0012F0010E5C6EC0EF12F0D8905A365B3648
:10257E005C2A5BAEC5EF12F0C7EF12F0BCEF12F0A3
:10258E00D8905E365F365A50585C5B505958D8A07A
:10259E00D3EF12F0D5EF12F0DAEF12F05A50585E78
:1025AE005B50595A5E80D8905B325A325C2EC7EF20
:1025BE0012F05D50D8B4E6EF12F0E8EF12F0ECEF47
:1025CE0012F05E6C5F1ED8B05F2A5EC058F05FC01E
:1025DE0059F012006050D8A4F7EF12F0F9EF12F094
:1025EE00FDEF12F0000E616E4BEF13F060C058F06D
:1025FE0005EC11F0616E60C058F06050D96EDA6A69
:10260E00000EDFBE010E596E98EC11F0616E60285F
:10261E00586E05EC11F0616E6028586E6050D96EE0
:10262E00DA6A010ED926000EDFBE010E596E98EC45
:10263E0011F0616E6050020F586E05EC11F0616E74
:10264E006050020F586E6050D96EDA6A020ED926AB
:10265E00000EDFBE010E596E98EC11F0616E6050E7
:10266E00030F586E05EC11F0616E6050030F586E3B
:10267E006050D96EDA6A030ED926000EDFBE010E47
:10268E00596E98EC11F0616E61501200010E6D6E74
:10269E006850D8A455EF13F057EF13F05BEF13F01B
:1026AE00000E6D6EA3EF13F06A0686EF13F068C08E
:1026BE0062F06A50800F636E52EC15F06D6EA3EFF0
:1026CE0013F068C062F06A50C00F636E52EC15F0E2
:1026DE006D6EA3EF13F068C062F06A50940F636ED4
:1026EE0052EC15F06D6EA3EF13F068C062F06A50F5
:1026FE00D40F636E52EC15F06D6EA3EF13F06950AC
:10270E006B6E6C6A6C50000AD8B490EF13F0A3EFA6
:10271E0013F06B50010AD8B45EEF13F0030AD8B46D
:10272E0068EF13F0010AD8B472EF13F0070AD8B4A9
:10273E007CEF13F0A3EF13F06D501200000E5D6EE0
:10274E0059BEAEEF13F0ACEF13F0B4EF13F0586CBC
:10275E00591ED8B0592A010E5D6E5BBEBBEF13F049
:10276E00B9EF13F0BFEF13F05A6C5B1ED8B05B2AB3
:10277E005A505B10D8B4C6EF13F0C8EF13F0ECEF5D
:10278E0013F0010E5C6ED0EF13F0D8905A365B3614
:10279E005C2A5BAED5EF13F0D7EF13F0CCEF13F04E
:1027AE005A50585C5B505958D8A0E0EF13F0E2EF46
:1027BE0013F0E6EF13F05A50585E5B50595AD8900A
:1027CE005B325A325C2ED7EF13F05D50D8B4F2EF75
:1027DE0013F0F4EF13F0F8EF13F0586C591ED8B055
:1027EE00592A58C058F059C059F01200010E5E6EA9
:1027FE005850D8B405EF14F007EF14F01FEF14F093
:10280E005950D8B40DEF14F00FEF14F01FEF14F071
:10281E005850D96EDA6ADF30E832E832070B5A6E5A
:10282E00070E5A641DEF14F01FEF14F023EF14F08F
:10283E00000E5E6E4DEF14F05950D96EDA6A585094
:10284E00E16EE26AE730E832E832070B5A6E585012
:10285E00E16EE26AE750070B020DF350900FE16E46
:10286E00E26AE6CF5BF0E5CF5CF05BC0E1FF5CC0F7
:10287E00E2FFE7505D6E5A2A47EF14F0D8905D32B2
:10288E005A2E45EF14F05D50010BDF6E5E501200B4
:10289E00010E5D6E5A50D8A457EF14F059EF14F094
:1028AE005DEF14F0000E5D6E94EF14F0D59E5AC0DD
:1028BE0058F028EC16F05AC058F08DEC15F05AC0AE
:1028CE0058F0EDEC16F05A50D96EDA6A040ED9268D
:1028DE00DECF5BF0DDCF5CF05CC05BF05C6A5B5022
:1028EE00D76E5A50D96EDA6A040ED926DF50D66EDC
:1028FE005A50D96EDA6A040ED926DECF2CF0DDCF0F
:10290E002DF0F28AF2945A50D96EDA6ADECF2EF09A
:10291E00DDCF2FF0F28EF28CD58E5D501200000EB0
:10292E00636E000E626E6050D8A4A0EF14F0A2EF9A
:10293E0014F0A6EF14F0000E616ED7EF14F0000E37
:10294E00636E60506324586E05EC11F0616E60503A
:10295E006324586E60506324D96EDA6A000EDFBEAF
:10296E00010E596E98EC11F0616E632A030E6364CA
:10297E00C3EF14F0C5EF14F0A8EF14F0000E626E62
:10298E0060506224040F586E05EC11F0616E622ADD
:10299E00030E6264D5EF14F0D7EF14F0C7EF14F006
:1029AE0061501200000E7A6E7350D8A4E1EF14F04D
:1029BE00E3EF14F0E7EF14F0000E796E15EF15F05B
:1029CE0073C062F07750080DF350400F636E52ECF7
:1029DE0015F0000E7A6E73C062F076507A24786E1F
:1029EE0078C0F6FF100EF76EF86A0800F5CF63F0A8
:1029FE0017EC15F07A2A070E7A6408EF15F00AEF35
:102A0E0015F0F2EF14F073C06EF074C06FF075C075
:102A1E0070F077C071F095EC16F0796E7950120067
:102A2E00000E676E6250D8A41FEF15F021EF15F05F
:102A3E0025EF15F0000E666E50EF15F062C058F0DF
:102A4E00010E596E98EC11F0000E676E62506724FD
:102A5E00020F586E67C064F063C065F0642A3AEFE7
:102A6E0015F0D8906532642E38EF15F06550010BD5
:102A7E00596E98EC11F0672A070E676449EF15F04E
:102A8E004BEF15F02DEF15F062C060F076EC16F0FE
:102A9E00666E66501200000E676E6250D8A45AEF32
:102AAE0015F05CEF15F060EF15F0000E666E8BEF13
:102ABE0015F062C058F0000E596E98EC11F0000E31
:102ACE00676E62506724020F586E67C064F063C071
:102ADE0065F0642A75EF15F0D8906532642E73EFA9
:102AEE0015F06550010B596E98EC11F0672A070E20
:102AFE00676484EF15F086EF15F068EF15F062C08D
:102B0E0060F076EC16F0666E665012005850D96E74
:102B1E00DA6A060ED926DFA497EF15F099EF15F0B5
:102B2E009CEF15F0D59AC7EF15F05850D96EDA6AAA
:102B3E00060ED926DFB4A6EF15F0A8EF15F0C7EFF5
:102B4E0015F0D58A5850D96EDA6A060ED926DFA24C
:102B5E00B3EF15F0B5EF15F0B8EF15F0D598C7EF48
:102B6E0015F05850D96EDA6A060ED926DFB2C2EFCA
:102B7E0015F0C4EF15F0C7EF15F0D588C7EF15F0B7
:102B8E001200010E6A6E6850D8B4D0EF15F0D2EF75
:102B9E0015F0DAEF15F06950D8A4D8EF15F0DAEF8A
:102BAE0015F0ECEF15F0000E6A6EFBEF15F068C035
:102BBE0062F069C0F6FF100EF76EF86A0800F5CFE6
:102BCE0063F017EC15F06A6E692A69C0F6FF100EF5
:102BDE00F76EF86A0800F5500009D8A4F9EF15F061
:102BEE00FBEF15F0DEEF15F06A501200750EF66E63
:102BFE002E0EF76E000EF86E00EE80F010EE26F040
:102C0E000900F5CFEEFFE550E150FAE14A0EF66EFF
:102C1E002E0EF76E000EF86E00EE01F010EE2BF099
:102C2E000900F5CFEEFFE550E150FAE100EE2CF091
:102C3E00290EEE6AE806FDE17C907C92000147EFDA
:102C4E0008F05850D96EDA6A060ED926DFA032EF98
:102C5E0016F034EF16F043EF16F0D5965850D96EA5
:102C6E00DA6A030ED926DF50596ED5505918F80B73
:102C7E005918D56E50EF16F05850D96EDA6A060E06
:102C8E00D926DFB04DEF16F04FEF16F050EF16F0DD
:102C9E00D58612006E50D8B457EF16F059EF16F0D5
:102CAE0061EF16F07150D8A45FEF16F061EF16F0D9
:102CBE0065EF16F0000E726E74EF16F06EC068F0CF
:102CCE006FC069F070C06AF04DEC13F06EC068F022
:102CDE0071C069F0C8EC15F0726E7250120060503F
:102CEE00D8A47CEF16F07EEF16F082EF16F0000EF1
:102CFE00616E93EF16F06028586E010E596E98ECC7
:102D0E0011F0030EE82EFED700006028586E000E5C
:102D1E00596E98EC11F0616E615012006E50D8A48D
:102D2E009BEF16F09DEF16F0A1EF16F0000E726EEF
:102D3E00B1EF16F06EC068F06FC069F070C06AF047
:102D4E004DEC13F0726E6EC062F071C063F017EC52
:102D5E0015F0726E72501200636E040E6364BAEF59
:102D6E0016F0BCEF16F0BEEF16F0CEEF16F0635075
:102D7E00020DF350010FD96EDA6ADECF61F0DDCFAE
:102D8E0062F061C0D9FF62C0DAFF60C0DFFF010EE2
:102D9E0012005B6E040E5B64D7EF16F0D9EF16F0DF
:102DAE00DBEF16F0EBEF16F05B50020DF3500B0F4E
:102DBE00D96EDA6ADECF59F0DDCF5AF059C0D9FF9D
:102DCE005AC0DAFF58C0DFFF010E12005850D96EFC
:102DDE00DA6A060ED926DFA6F7EF16F0F9EF16F02F
:102DEE00FCEF16F0D58C09EF17F05850D96EDA6A51
:102DFE00060ED926DFB606EF17F008EF17F009EF2B
:102E0E0017F0D59C1200F2942D50D76E2CC0D6FF21
:102E1E002E502F10D8B416EF17F018EF17F024EF2E
:102E2E0017F002D824EF17F00500FA6E2E50FD6E43
:102E3E002F50FE6EFF6AFA5012001200890F8A0F91
:102E4E008B0F8C0F8D0F920F930F940F950F960F74
:102E5E00010101012830030B131B232B333B020A04
:102E6E00121A626A727A633738392F3435362A313C
:102E7E0032332D41303D2B800F810F820F830F8413
:0D2E8E000F102F0004DC0B050008101800C9
:102E9C00556EF2905550D8A456EF17F058EF17F026
:102EAC005AEF17F05AEF17F01200556EF29055507A
:102EBC00D8A463EF17F065EF17F067EF17F067EF23
:102ECC0017F01200556EF2905550D8A470EF17F011
:102EDC0072EF17F074EF17F074EF17F01200556ED5
:102EEC00F2905550D8A47DEF17F07FEF17F081EFDB
:102EFC0017F081EF17F012009E903150CF6E30C05A
:102F0C00CEFF1200532A1200F0921200F090120021
:042F1C00F29212001B
:00000001FF
